:0E0000000C9445000C9400000C9400000C942D
:10000E0000000C9400000C9400000C9400000C9462
:10001E0000000C9400000C9400000C9400000C9452
:10002E0000000C9400000C9400000C9400000C9442
:10003E0000000C9400000C9400000C9400000C9432
:10004E0000000C9400004920616D206E6F74204BEF
:10005E00616D796162004920616D204B616D79613E
:10006E00620001002D4E414E00494E4600000C002C
:10007E006002640001006C0270000000F894EE272C
:10008E00ECBBF1E0FBBFEBBFE5BF8DE0A2E0BB2711
:10009E00ED938A95E9F780E098E0A0E6ED9301975D
:1000AE00E9F7ECE7F0E085919591009761F0A59165
:1000BE00B59105901590BF01F00105900D92019735
:1000CE00E1F7FB01F0CFEFE5EDBFE8E0EEBFC0E6F4
:1000DE00D2E00C94B3010E94C801E0640E2FAA98DE
:1000EE00A89833E00E94CF0111F4A99801C0A99AF3
:1000FE00A89AA898303011F03150F4CF34E038304F
:10010E0060F40E94CF0111F4A99801C0A99AA89A8F
:10011E00A898303011F03F5FF2CF0E94D501AA9817
:10012E00EC81E295EF700E2FA89833E00E94CF017C
:10013E0011F4A99801C0A99AA89AA898303011F084
:10014E003150F4CF34E0383060F40E94CF0111F416
:10015E00A99801C0A99AA89AA898303011F03F5FCB
:10016E00F2CF0E94D501A8980E94DA01106433E004
:10017E000E94DF0111F4A99801C0A99AA89AA89823
:10018E00303011F03150F4CF34E0383060F40E944A
:10019E00DF0111F4A99801C0A99AA89AA898303045
:1001AE0011F03F5FF2CF0E94D5010E94DA0133E0D9
:1001BE000E94DF0111F4A99801C0A99AA89AA898E3
:1001CE00303011F03150F4CF34E0383060F40E940A
:1001DE00DF0111F4A99801C0A99AA89AA898303005
:1001EE0011F03F5FF2CF9DC0A9E1B0E00E94EC019B
:1001FE00A3E371DFA2E36FDFA8E26DDFACE06BDF9C
:10020E00A6E069DFA1E001C0AFE065DF08950E94BE
:10021E00C801E06C0E2FAA98A89833E00E94CF0177
:10022E0011F4A99801C0A99AA89AA898303011F093
:10023E003150F4CF34E0383060F40E94CF0111F425
:10024E00A99801C0A99AA89AA898303011F03F5FDA
:10025E00F2CF0E94D501AA98EC81E295EF70E0688A
:10026E000E2FA89833E00E94CF0111F4A99801C077
:10027E00A99AA89AA898303011F03150F4CF34E0F2
:10028E00383060F40E94CF0111F4A99801C0A99AE8
:10029E00A89AA898303011F03F5FF2CF0E94D50196
:1002AE00A8980E94DA01106C33E00E94DF0111F46D
:1002BE00A99801C0A99AA89AA898303011F0315087
:1002CE00F4CF34E0383060F40E94DF0111F4A998C5
:1002DE0001C0A99AA89AA898303011F03F5FF2CFCA
:1002EE000E94D5010E94DA01106833E00E94DF01FE
:1002FE0011F4A99801C0A99AA89AA898303011F0C3
:10030E003150F4CF34E0383060F40E94DF0111F444
:10031E00A99801C0A99AA89AA898303011F03F5F09
:10032E00F2CFAA9AA0E0B0E00E94EC010E94030274
:10033E0025960895BA93AA931A9310E00E94E501A8
:10034E00EC91E03031F00E94E501AC9160DF1F5F6F
:10035E00F5CF188123960895609780E1A0E0B0E074
:10036E00E4E5F0E00E94080200E612E08E01EFEFF5
:10037E00E4BBE7E0E5BB38DF47DFD801DBDFFFCFCB
:10038E00FFCFAA930E94FE01EC81E295EF700895D3
:10039E00E32FA02F0E94F601E1700895AA9AA0E023
:1003AE00B0E00C94EC01AA98EC81EF701E2F08952A
:1003BE00E32FA12F0E94F601E1700895E12FF0E0E6
:1003CE00A981BA81AE0FBF1F0895109639F080ED46
:1003DE0097E00197F1F7A8951197C9F70895EE23C5
:1003EE000E2EEA2F19F0E6950A94E9F708953A933E
:1003FE002A931A930A9308953B812A8119810881C1
:10040E000895AC0FBD1F05900D928A95E1F70895E2
:00000001FF
